{
  "_format": "hh-sol-artifact-1",
  "contractName": "clearFund",
  "sourceName": "contracts/clearFund.sol",
  "abi": [
    {
      "inputs": [],
      "stateMutability": "nonpayable",
      "type": "constructor"
    },
    {
      "anonymous": false,
      "inputs": [
        {
          "indexed": false,
          "internalType": "address",
          "name": "recipient",
          "type": "address"
        }
      ],
      "name": "CreatorPaid",
      "type": "event"
    },
    {
      "anonymous": false,
      "inputs": [
        {
          "indexed": false,
          "internalType": "address",
          "name": "contributor",
          "type": "address"
        },
        {
          "indexed": false,
          "internalType": "uint256",
          "name": "amount",
          "type": "uint256"
        },
        {
          "indexed": false,
          "internalType": "uint256",
          "name": "currentTotal",
          "type": "uint256"
        }
      ],
      "name": "FundingReceived",
      "type": "event"
    },
    {
      "inputs": [
        {
          "internalType": "uint256",
          "name": "_projectId",
          "type": "uint256"
        }
      ],
      "name": "checkIfFundingCompleteOrExpired",
      "outputs": [],
      "stateMutability": "nonpayable",
      "type": "function"
    },
    {
      "inputs": [
        {
          "internalType": "uint256",
          "name": "_projectId",
          "type": "uint256"
        }
      ],
      "name": "contribute",
      "outputs": [
        {
          "internalType": "bool",
          "name": "",
          "type": "bool"
        }
      ],
      "stateMutability": "payable",
      "type": "function"
    },
    {
      "inputs": [
        {
          "internalType": "uint256",
          "name": "_projectId",
          "type": "uint256"
        },
        {
          "internalType": "string",
          "name": "_desc",
          "type": "string"
        },
        {
          "internalType": "uint256",
          "name": "_value",
          "type": "uint256"
        },
        {
          "internalType": "address payable",
          "name": "_receipient",
          "type": "address"
        }
      ],
      "name": "createRequest",
      "outputs": [],
      "stateMutability": "nonpayable",
      "type": "function"
    },
    {
      "inputs": [],
      "name": "getAllProjects",
      "outputs": [
        {
          "components": [
            {
              "internalType": "uint256",
              "name": "OrgainizationId",
              "type": "uint256"
            },
            {
              "internalType": "address payable",
              "name": "Creator",
              "type": "address"
            },
            {
              "internalType": "string",
              "name": "Title",
              "type": "string"
            },
            {
              "internalType": "string",
              "name": "Description",
              "type": "string"
            },
            {
              "internalType": "uint256",
              "name": "Target",
              "type": "uint256"
            },
            {
              "internalType": "uint256",
              "name": "CapitalRaised",
              "type": "uint256"
            },
            {
              "internalType": "uint256",
              "name": "Deadline",
              "type": "uint256"
            },
            {
              "internalType": "string",
              "name": "Location",
              "type": "string"
            },
            {
              "internalType": "string",
              "name": "Category",
              "type": "string"
            },
            {
              "internalType": "string",
              "name": "Img",
              "type": "string"
            },
            {
              "internalType": "enum clearFund.State",
              "name": "state",
              "type": "uint8"
            },
            {
              "internalType": "uint256",
              "name": "noOfContributors",
              "type": "uint256"
            },
            {
              "components": [
                {
                  "internalType": "uint256",
                  "name": "requestId",
                  "type": "uint256"
                },
                {
                  "internalType": "string",
                  "name": "desc",
                  "type": "string"
                },
                {
                  "internalType": "uint256",
                  "name": "value",
                  "type": "uint256"
                },
                {
                  "internalType": "address payable",
                  "name": "receipient",
                  "type": "address"
                },
                {
                  "internalType": "bool",
                  "name": "status",
                  "type": "bool"
                },
                {
                  "internalType": "uint256",
                  "name": "noOfVoter",
                  "type": "uint256"
                }
              ],
              "internalType": "struct clearFund.Request[]",
              "name": "requests",
              "type": "tuple[]"
            },
            {
              "internalType": "uint256",
              "name": "numRequests",
              "type": "uint256"
            }
          ],
          "internalType": "struct clearFund.Project[]",
          "name": "",
          "type": "tuple[]"
        }
      ],
      "stateMutability": "view",
      "type": "function"
    },
    {
      "inputs": [
        {
          "internalType": "uint256",
          "name": "_projectID",
          "type": "uint256"
        }
      ],
      "name": "getAllRequests",
      "outputs": [
        {
          "components": [
            {
              "internalType": "uint256",
              "name": "requestId",
              "type": "uint256"
            },
            {
              "internalType": "string",
              "name": "desc",
              "type": "string"
            },
            {
              "internalType": "uint256",
              "name": "value",
              "type": "uint256"
            },
            {
              "internalType": "address payable",
              "name": "receipient",
              "type": "address"
            },
            {
              "internalType": "bool",
              "name": "status",
              "type": "bool"
            },
            {
              "internalType": "uint256",
              "name": "noOfVoter",
              "type": "uint256"
            }
          ],
          "internalType": "struct clearFund.Request[]",
          "name": "",
          "type": "tuple[]"
        }
      ],
      "stateMutability": "view",
      "type": "function"
    },
    {
      "inputs": [],
      "name": "getContractBalance",
      "outputs": [
        {
          "internalType": "uint256",
          "name": "",
          "type": "uint256"
        }
      ],
      "stateMutability": "view",
      "type": "function"
    },
    {
      "inputs": [
        {
          "internalType": "uint256",
          "name": "_projectId",
          "type": "uint256"
        }
      ],
      "name": "getDetails",
      "outputs": [
        {
          "components": [
            {
              "internalType": "uint256",
              "name": "OrgainizationId",
              "type": "uint256"
            },
            {
              "internalType": "address payable",
              "name": "Creator",
              "type": "address"
            },
            {
              "internalType": "string",
              "name": "Title",
              "type": "string"
            },
            {
              "internalType": "string",
              "name": "Description",
              "type": "string"
            },
            {
              "internalType": "uint256",
              "name": "Target",
              "type": "uint256"
            },
            {
              "internalType": "uint256",
              "name": "CapitalRaised",
              "type": "uint256"
            },
            {
              "internalType": "uint256",
              "name": "Deadline",
              "type": "uint256"
            },
            {
              "internalType": "string",
              "name": "Location",
              "type": "string"
            },
            {
              "internalType": "string",
              "name": "Category",
              "type": "string"
            },
            {
              "internalType": "string",
              "name": "Img",
              "type": "string"
            },
            {
              "internalType": "enum clearFund.State",
              "name": "state",
              "type": "uint8"
            },
            {
              "internalType": "uint256",
              "name": "noOfContributors",
              "type": "uint256"
            },
            {
              "components": [
                {
                  "internalType": "uint256",
                  "name": "requestId",
                  "type": "uint256"
                },
                {
                  "internalType": "string",
                  "name": "desc",
                  "type": "string"
                },
                {
                  "internalType": "uint256",
                  "name": "value",
                  "type": "uint256"
                },
                {
                  "internalType": "address payable",
                  "name": "receipient",
                  "type": "address"
                },
                {
                  "internalType": "bool",
                  "name": "status",
                  "type": "bool"
                },
                {
                  "internalType": "uint256",
                  "name": "noOfVoter",
                  "type": "uint256"
                }
              ],
              "internalType": "struct clearFund.Request[]",
              "name": "requests",
              "type": "tuple[]"
            },
            {
              "internalType": "uint256",
              "name": "numRequests",
              "type": "uint256"
            }
          ],
          "internalType": "struct clearFund.Project",
          "name": "",
          "type": "tuple"
        }
      ],
      "stateMutability": "view",
      "type": "function"
    },
    {
      "inputs": [
        {
          "internalType": "uint256",
          "name": "_projectId",
          "type": "uint256"
        }
      ],
      "name": "getRefund",
      "outputs": [
        {
          "internalType": "bool",
          "name": "",
          "type": "bool"
        }
      ],
      "stateMutability": "nonpayable",
      "type": "function"
    },
    {
      "inputs": [
        {
          "internalType": "uint256",
          "name": "_projectId",
          "type": "uint256"
        },
        {
          "internalType": "address",
          "name": "_address",
          "type": "address"
        }
      ],
      "name": "myContributions",
      "outputs": [
        {
          "internalType": "uint256",
          "name": "",
          "type": "uint256"
        }
      ],
      "stateMutability": "view",
      "type": "function"
    },
    {
      "inputs": [
        {
          "internalType": "string",
          "name": "_projectTitle",
          "type": "string"
        },
        {
          "internalType": "string",
          "name": "_projectDesc",
          "type": "string"
        },
        {
          "internalType": "uint256",
          "name": "_fundRaisingDeadline",
          "type": "uint256"
        },
        {
          "internalType": "uint256",
          "name": "_goalAmount",
          "type": "uint256"
        },
        {
          "internalType": "string",
          "name": "_location",
          "type": "string"
        },
        {
          "internalType": "string",
          "name": "_category",
          "type": "string"
        },
        {
          "internalType": "string",
          "name": "_img",
          "type": "string"
        }
      ],
      "name": "startProject",
      "outputs": [],
      "stateMutability": "nonpayable",
      "type": "function"
    },
    {
      "inputs": [
        {
          "internalType": "uint256",
          "name": "_projectId",
          "type": "uint256"
        },
        {
          "internalType": "uint256",
          "name": "_requestNo",
          "type": "uint256"
        }
      ],
      "name": "voteRequest",
      "outputs": [],
      "stateMutability": "nonpayable",
      "type": "function"
    }
  ],
  "bytecode": "0x608060405234801561001057600080fd5b50336000806101000a81548173ffffffffffffffffffffffffffffffffffffffff021916908373ffffffffffffffffffffffffffffffffffffffff160217905550613c73806100606000396000f3fe60806040526004361061009c5760003560e01c80638af130c1116100645780638af130c114610186578063b93a89f7146101af578063c1cbbca7146101ec578063d0f14c881461021c578063d2f0be9914610259578063fa1dacfc146102965761009c565b8063330516c9146100a1578063358ef816146100de5780636f9fb98a146101075780637374a1bf1461013257806380d038291461015b575b600080fd5b3480156100ad57600080fd5b506100c860048036038101906100c39190612a96565b6102bf565b6040516100d591906132fb565b60405180910390f35b3480156100ea57600080fd5b5061010560048036038101906101009190612a96565b610464565b005b34801561011357600080fd5b5061011c6105db565b604051610129919061349a565b60405180910390f35b34801561013e57600080fd5b5061015960048036038101906101549190612b03565b6105e3565b005b34801561016757600080fd5b50610170610a11565b60405161017d91906132d9565b60405180910390f35b34801561019257600080fd5b506101ad60048036038101906101a89190612b86565b610f98565b005b3480156101bb57600080fd5b506101d660048036038101906101d19190612a96565b6114c8565b6040516101e39190613478565b60405180910390f35b61020660048036038101906102019190612a96565b611a2c565b604051610213919061331d565b60405180910390f35b34801561022857600080fd5b50610243600480360381019061023e9190612ac3565b611dd0565b604051610250919061349a565b60405180910390f35b34801561026557600080fd5b50610280600480360381019061027b9190612a96565b611e3d565b60405161028d919061331d565b60405180910390f35b3480156102a257600080fd5b506102bd60048036038101906102b89190612968565b612172565b005b6060600482815481106102d5576102d461392f565b5b90600052602060002090600e0201600c01805480602002602001604051908101604052809291908181526020016000905b8282101561045957838290600052602060002090600502016040518060c001604052908160008201548152602001600182018054610343906137c7565b80601f016020809104026020016040519081016040528092919081815260200182805461036f906137c7565b80156103bc5780601f10610391576101008083540402835291602001916103bc565b820191906000526020600020905b81548152906001019060200180831161039f57829003601f168201915b50505050508152602001600282015481526020016003820160009054906101000a900473ffffffffffffffffffffffffffffffffffffffff1673ffffffffffffffffffffffffffffffffffffffff1673ffffffffffffffffffffffffffffffffffffffff1681526020016003820160149054906101000a900460ff1615151515815260200160048201548152505081526020019060010190610306565b505050509050919050565b600481815481106104785761047761392f565b5b90600052602060002090600e0201600401546004828154811061049e5761049d61392f565b5b90600052602060002090600e02016005015410610508576002600482815481106104cb576104ca61392f565b5b90600052602060002090600e0201600a0160006101000a81548160ff021916908360028111156104fe576104fd6138d1565b5b02179055506105d8565b6004818154811061051c5761051b61392f565b5b90600052602060002090600e0201600601544211156105885760016004828154811061054b5761054a61392f565b5b90600052602060002090600e0201600a0160006101000a81548160ff0219169083600281111561057e5761057d6138d1565b5b02179055506105d7565b60006004828154811061059e5761059d61392f565b5b90600052602060002090600e0201600a0160006101000a81548160ff021916908360028111156105d1576105d06138d1565b5b02179055505b5b50565b600047905090565b6002808111156105f6576105f56138d1565b5b6004858154811061060a5761060961392f565b5b90600052602060002090600e0201600a0160009054906101000a900460ff16600281111561063b5761063a6138d1565b5b1461067b576040517f08c379a000000000000000000000000000000000000000000000000000000000815260040161067290613398565b60405180910390fd5b6004848154811061068f5761068e61392f565b5b90600052602060002090600e020160010160009054906101000a900473ffffffffffffffffffffffffffffffffffffffff1673ffffffffffffffffffffffffffffffffffffffff163373ffffffffffffffffffffffffffffffffffffffff161461072e576040517f08c379a000000000000000000000000000000000000000000000000000000000815260040161072590613458565b60405180910390fd5b600484815481106107425761074161392f565b5b90600052602060002090600e020160050154821115610796576040517f08c379a000000000000000000000000000000000000000000000000000000000815260040161078d90613378565b60405180910390fd5b600484815481106107aa576107a961392f565b5b90600052602060002090600e0201600c0160018160018154018082558091505003906000526020600020905050600284815481106107eb576107ea61392f565b5b90600052602060002090600302016002016001816001815401808255809150500390600052602060002090505060006001600486815481106108305761082f61392f565b5b90600052602060002090600e0201600c018054905061084f919061369c565b905083600486815481106108665761086561392f565b5b90600052602060002090600e0201600c0182815481106108895761088861392f565b5b906000526020600020906005020160010190805190602001906108ad92919061277f565b5082600486815481106108c3576108c261392f565b5b90600052602060002090600e0201600c0182815481106108e6576108e561392f565b5b90600052602060002090600502016002018190555081600486815481106109105761090f61392f565b5b90600052602060002090600e0201600c0182815481106109335761093261392f565b5b906000526020600020906005020160030160006101000a81548173ffffffffffffffffffffffffffffffffffffffff021916908373ffffffffffffffffffffffffffffffffffffffff16021790555080600486815481106109975761099661392f565b5b90600052602060002090600e0201600c0182815481106109ba576109b961392f565b5b906000526020600020906005020160000181905550600485815481106109e3576109e261392f565b5b90600052602060002090600e0201600d016000815480929190610a059061382a565b91905055505050505050565b60606004805480602002602001604051908101604052809291908181526020016000905b82821015610f8f57838290600052602060002090600e0201604051806101c0016040529081600082015481526020016001820160009054906101000a900473ffffffffffffffffffffffffffffffffffffffff1673ffffffffffffffffffffffffffffffffffffffff1673ffffffffffffffffffffffffffffffffffffffff168152602001600282018054610ac9906137c7565b80601f0160208091040260200160405190810160405280929190818152602001828054610af5906137c7565b8015610b425780601f10610b1757610100808354040283529160200191610b42565b820191906000526020600020905b815481529060010190602001808311610b2557829003601f168201915b50505050508152602001600382018054610b5b906137c7565b80601f0160208091040260200160405190810160405280929190818152602001828054610b87906137c7565b8015610bd45780601f10610ba957610100808354040283529160200191610bd4565b820191906000526020600020905b815481529060010190602001808311610bb757829003601f168201915b50505050508152602001600482015481526020016005820154815260200160068201548152602001600782018054610c0b906137c7565b80601f0160208091040260200160405190810160405280929190818152602001828054610c37906137c7565b8015610c845780601f10610c5957610100808354040283529160200191610c84565b820191906000526020600020905b815481529060010190602001808311610c6757829003601f168201915b50505050508152602001600882018054610c9d906137c7565b80601f0160208091040260200160405190810160405280929190818152602001828054610cc9906137c7565b8015610d165780601f10610ceb57610100808354040283529160200191610d16565b820191906000526020600020905b815481529060010190602001808311610cf957829003601f168201915b50505050508152602001600982018054610d2f906137c7565b80601f0160208091040260200160405190810160405280929190818152602001828054610d5b906137c7565b8015610da85780601f10610d7d57610100808354040283529160200191610da8565b820191906000526020600020905b815481529060010190602001808311610d8b57829003601f168201915b50505050508152602001600a820160009054906101000a900460ff166002811115610dd657610dd56138d1565b5b6002811115610de857610de76138d1565b5b8152602001600b8201548152602001600c8201805480602002602001604051908101604052809291908181526020016000905b82821015610f6e57838290600052602060002090600502016040518060c001604052908160008201548152602001600182018054610e58906137c7565b80601f0160208091040260200160405190810160405280929190818152602001828054610e84906137c7565b8015610ed15780601f10610ea657610100808354040283529160200191610ed1565b820191906000526020600020905b815481529060010190602001808311610eb457829003601f168201915b50505050508152602001600282015481526020016003820160009054906101000a900473ffffffffffffffffffffffffffffffffffffffff1673ffffffffffffffffffffffffffffffffffffffff1673ffffffffffffffffffffffffffffffffffffffff1681526020016003820160149054906101000a900460ff1615151515815260200160048201548152505081526020019060010190610e1b565b505050508152602001600d8201548152505081526020019060010190610a35565b50505050905090565b600280811115610fab57610faa6138d1565b5b60048381548110610fbf57610fbe61392f565b5b90600052602060002090600e0201600a0160009054906101000a900460ff166002811115610ff057610fef6138d1565b5b14611030576040517f08c379a000000000000000000000000000000000000000000000000000000000815260040161102790613398565b60405180910390fd5b6000600283815481106110465761104561392f565b5b906000526020600020906003020160010160003373ffffffffffffffffffffffffffffffffffffffff1673ffffffffffffffffffffffffffffffffffffffff16815260200190815260200160002054116110d5576040517f08c379a00000000000000000000000000000000000000000000000000000000081526004016110cc906133d8565b60405180910390fd5b60001515600283815481106110ed576110ec61392f565b5b906000526020600020906003020160020182815481106111105761110f61392f565b5b906000526020600020906002020160010160003373ffffffffffffffffffffffffffffffffffffffff1673ffffffffffffffffffffffffffffffffffffffff16815260200190815260200160002060009054906101000a900460ff161515146111ae576040517f08c379a00000000000000000000000000000000000000000000000000000000081526004016111a590613358565b60405180910390fd5b600482815481106111c2576111c161392f565b5b90600052602060002090600e0201600c0181815481106111e5576111e461392f565b5b906000526020600020906005020160040160008154809291906112079061382a565b91905055506001600283815481106112225761122161392f565b5b906000526020600020906003020160020182815481106112455761124461392f565b5b906000526020600020906002020160010160003373ffffffffffffffffffffffffffffffffffffffff1673ffffffffffffffffffffffffffffffffffffffff16815260200190815260200160002060006101000a81548160ff021916908315150217905550600482815481106112be576112bd61392f565b5b90600052602060002090600e0201600b01546002600484815481106112e6576112e561392f565b5b90600052602060002090600e0201600c0183815481106113095761130861392f565b5b9060005260206000209060050201600401546113259190613642565b101580156113a05750600482815481106113425761134161392f565b5b90600052602060002090600e020160050154600483815481106113685761136761392f565b5b90600052602060002090600e0201600c01828154811061138b5761138a61392f565b5b90600052602060002090600502016002015411155b156114c4576001600483815481106113bb576113ba61392f565b5b90600052602060002090600e0201600c0182815481106113de576113dd61392f565b5b906000526020600020906005020160030160146101000a81548160ff0219169083151502179055506114c2826004848154811061141e5761141d61392f565b5b90600052602060002090600e0201600c0183815481106114415761144061392f565b5b906000526020600020906005020160030160009054906101000a900473ffffffffffffffffffffffffffffffffffffffff16600485815481106114875761148661392f565b5b90600052602060002090600e0201600c0184815481106114aa576114a961392f565b5b906000526020600020906005020160020154846124b6565b505b5050565b6114d0612805565b600482815481106114e4576114e361392f565b5b90600052602060002090600e0201604051806101c0016040529081600082015481526020016001820160009054906101000a900473ffffffffffffffffffffffffffffffffffffffff1673ffffffffffffffffffffffffffffffffffffffff1673ffffffffffffffffffffffffffffffffffffffff16815260200160028201805461156e906137c7565b80601f016020809104026020016040519081016040528092919081815260200182805461159a906137c7565b80156115e75780601f106115bc576101008083540402835291602001916115e7565b820191906000526020600020905b8154815290600101906020018083116115ca57829003601f168201915b50505050508152602001600382018054611600906137c7565b80601f016020809104026020016040519081016040528092919081815260200182805461162c906137c7565b80156116795780601f1061164e57610100808354040283529160200191611679565b820191906000526020600020905b81548152906001019060200180831161165c57829003601f168201915b505050505081526020016004820154815260200160058201548152602001600682015481526020016007820180546116b0906137c7565b80601f01602080910402602001604051908101604052809291908181526020018280546116dc906137c7565b80156117295780601f106116fe57610100808354040283529160200191611729565b820191906000526020600020905b81548152906001019060200180831161170c57829003601f168201915b50505050508152602001600882018054611742906137c7565b80601f016020809104026020016040519081016040528092919081815260200182805461176e906137c7565b80156117bb5780601f10611790576101008083540402835291602001916117bb565b820191906000526020600020905b81548152906001019060200180831161179e57829003601f168201915b505050505081526020016009820180546117d4906137c7565b80601f0160208091040260200160405190810160405280929190818152602001828054611800906137c7565b801561184d5780601f106118225761010080835404028352916020019161184d565b820191906000526020600020905b81548152906001019060200180831161183057829003601f168201915b50505050508152602001600a820160009054906101000a900460ff16600281111561187b5761187a6138d1565b5b600281111561188d5761188c6138d1565b5b8152602001600b8201548152602001600c8201805480602002602001604051908101604052809291908181526020016000905b82821015611a1357838290600052602060002090600502016040518060c0016040529081600082015481526020016001820180546118fd906137c7565b80601f0160208091040260200160405190810160405280929190818152602001828054611929906137c7565b80156119765780601f1061194b57610100808354040283529160200191611976565b820191906000526020600020905b81548152906001019060200180831161195957829003601f168201915b50505050508152602001600282015481526020016003820160009054906101000a900473ffffffffffffffffffffffffffffffffffffffff1673ffffffffffffffffffffffffffffffffffffffff1673ffffffffffffffffffffffffffffffffffffffff1681526020016003820160149054906101000a900460ff16151515158152602001600482015481525050815260200190600101906118c0565b505050508152602001600d820154815250509050919050565b600060048281548110611a4257611a4161392f565b5b90600052602060002090600e020160010160009054906101000a900473ffffffffffffffffffffffffffffffffffffffff1673ffffffffffffffffffffffffffffffffffffffff163373ffffffffffffffffffffffffffffffffffffffff161415611ae2576040517f08c379a0000000000000000000000000000000000000000000000000000000008152600401611ad990613418565b60405180910390fd5b611aeb82610464565b60006002811115611aff57611afe6138d1565b5b60048381548110611b1357611b1261392f565b5b90600052602060002090600e0201600a0160009054906101000a900460ff166002811115611b4457611b436138d1565b5b14611b84576040517f08c379a0000000000000000000000000000000000000000000000000000000008152600401611b7b90613338565b60405180910390fd5b611bbc3460048481548110611b9c57611b9b61392f565b5b90600052602060002090600e02016005015461272790919063ffffffff16565b60048381548110611bd057611bcf61392f565b5b90600052602060002090600e020160050181905550611c5a3460028481548110611bfd57611bfc61392f565b5b906000526020600020906003020160010160003373ffffffffffffffffffffffffffffffffffffffff1673ffffffffffffffffffffffffffffffffffffffff1681526020019081526020016000205461272790919063ffffffff16565b60028381548110611c6e57611c6d61392f565b5b906000526020600020906003020160010160003373ffffffffffffffffffffffffffffffffffffffff1673ffffffffffffffffffffffffffffffffffffffff168152602001908152602001600020819055507f5cdc4ab8d637538ead6cc1904d4160343656c8c82bd266635cfd31ac008fffe0333460048581548110611cf757611cf661392f565b5b90600052602060002090600e020160050154604051611d18939291906132a2565b60405180910390a1600060028381548110611d3657611d3561392f565b5b906000526020600020906003020160010160003373ffffffffffffffffffffffffffffffffffffffff1673ffffffffffffffffffffffffffffffffffffffff168152602001908152602001600020541415611dc75760048281548110611d9f57611d9e61392f565b5b90600052602060002090600e0201600b016000815480929190611dc19061382a565b91905055505b60019050919050565b600060028381548110611de657611de561392f565b5b906000526020600020906003020160010160008373ffffffffffffffffffffffffffffffffffffffff1673ffffffffffffffffffffffffffffffffffffffff16815260200190815260200160002054905092915050565b6000611e4882610464565b60016002811115611e5c57611e5b6138d1565b5b60048381548110611e7057611e6f61392f565b5b90600052602060002090600e0201600a0160009054906101000a900460ff166002811115611ea157611ea06138d1565b5b14611ee1576040517f08c379a0000000000000000000000000000000000000000000000000000000008152600401611ed8906133f8565b60405180910390fd5b600060028381548110611ef757611ef661392f565b5b906000526020600020906003020160010160003373ffffffffffffffffffffffffffffffffffffffff1673ffffffffffffffffffffffffffffffffffffffff1681526020019081526020016000205411611f86576040517f08c379a0000000000000000000000000000000000000000000000000000000008152600401611f7d90613438565b60405180910390fd5b600060028381548110611f9c57611f9b61392f565b5b906000526020600020906003020160010160003373ffffffffffffffffffffffffffffffffffffffff1673ffffffffffffffffffffffffffffffffffffffff1681526020019081526020016000205490506000600284815481106120035761200261392f565b5b906000526020600020906003020160010160003373ffffffffffffffffffffffffffffffffffffffff1673ffffffffffffffffffffffffffffffffffffffff1681526020019081526020016000208190555060003390508073ffffffffffffffffffffffffffffffffffffffff166108fc839081150290604051600060405180830381858888f193505050506121055781600285815481106120a8576120a761392f565b5b906000526020600020906003020160010160003373ffffffffffffffffffffffffffffffffffffffff1673ffffffffffffffffffffffffffffffffffffffff1681526020019081526020016000208190555060009250505061216d565b61213d826004868154811061211d5761211c61392f565b5b90600052602060002090600e02016005015461273d90919063ffffffff16565b600485815481106121515761215061392f565b5b90600052602060002090600e0201600501819055506001925050505b919050565b600460018160018154018082558091505003906000526020600020905050600260018160018154018082558091505003906000526020600020905050600060016004805490506121c2919061369c565b9050600354600482815481106121db576121da61392f565b5b90600052602060002090600e02016000018190555033600482815481106122055761220461392f565b5b90600052602060002090600e020160010160006101000a81548173ffffffffffffffffffffffffffffffffffffffff021916908373ffffffffffffffffffffffffffffffffffffffff16021790555087600482815481106122695761226861392f565b5b90600052602060002090600e0201600201908051906020019061228d92919061277f565b5086600482815481106122a3576122a261392f565b5b90600052602060002090600e020160030190805190602001906122c792919061277f565b5084600482815481106122dd576122dc61392f565b5b90600052602060002090600e020160040181905550612318612309603c8861275390919063ffffffff16565b4261272790919063ffffffff16565b6004828154811061232c5761232b61392f565b5b90600052602060002090600e0201600601819055506000600482815481106123575761235661392f565b5b90600052602060002090600e02016005018190555083600482815481106123815761238061392f565b5b90600052602060002090600e020160070190805190602001906123a592919061277f565b5082600482815481106123bb576123ba61392f565b5b90600052602060002090600e020160080190805190602001906123df92919061277f565b5081600482815481106123f5576123f461392f565b5b90600052602060002090600e0201600901908051906020019061241992919061277f565b506000600482815481106124305761242f61392f565b5b90600052602060002090600e0201600a0160006101000a81548160ff02191690836002811115612463576124626138d1565b5b02179055506003546002828154811061247f5761247e61392f565b5b906000526020600020906003020160000181905550600360008154809291906124a79061382a565b91905055505050505050505050565b600080600486815481106124cd576124cc61392f565b5b90600052602060002090600e0201600c0183815481106124f0576124ef61392f565b5b906000526020600020906005020190506125396002600488815481106125195761251861392f565b5b90600052602060002090600e0201600b015461276990919063ffffffff16565b8160040154101561257f576040517f08c379a0000000000000000000000000000000000000000000000000000000008152600401612576906133b8565b60405180910390fd5b600060646061866125909190613642565b61259a9190613611565b9050600060646003876125ad9190613642565b6125b79190613611565b905080600160008282546125cb91906135bb565b925050819055508673ffffffffffffffffffffffffffffffffffffffff166108fc839081150290604051600060405180830381858888f1935050505015612717577f2f256415efc8561af8db667cb242964b19be7380f379ccdafaa0e54a6f6b70698760405161263b9190613287565b60405180910390a160008054906101000a900473ffffffffffffffffffffffffffffffffffffffff1673ffffffffffffffffffffffffffffffffffffffff166108fc829081150290604051600060405180830381858888f193505050501580156126a9573d6000803e3d6000fd5b506126e28660048a815481106126c2576126c161392f565b5b90600052602060002090600e02016005015461273d90919063ffffffff16565b600489815481106126f6576126f561392f565b5b90600052602060002090600e0201600501819055506001935050505061271f565b600093505050505b949350505050565b6000818361273591906135bb565b905092915050565b6000818361274b919061369c565b905092915050565b600081836127619190613642565b905092915050565b600081836127779190613611565b905092915050565b82805461278b906137c7565b90600052602060002090601f0160209004810192826127ad57600085556127f4565b82601f106127c657805160ff19168380011785556127f4565b828001600101855582156127f4579182015b828111156127f35782518255916020019190600101906127d8565b5b509050612801919061289c565b5090565b604051806101c0016040528060008152602001600073ffffffffffffffffffffffffffffffffffffffff168152602001606081526020016060815260200160008152602001600081526020016000815260200160608152602001606081526020016060815260200160006002811115612881576128806138d1565b5b81526020016000815260200160608152602001600081525090565b5b808211156128b557600081600090555060010161289d565b5090565b60006128cc6128c7846134da565b6134b5565b9050828152602081018484840111156128e8576128e7613992565b5b6128f3848285613785565b509392505050565b60008135905061290a81613bf8565b92915050565b60008135905061291f81613c0f565b92915050565b600082601f83011261293a5761293961398d565b5b813561294a8482602086016128b9565b91505092915050565b60008135905061296281613c26565b92915050565b600080600080600080600060e0888a0312156129875761298661399c565b5b600088013567ffffffffffffffff8111156129a5576129a4613997565b5b6129b18a828b01612925565b975050602088013567ffffffffffffffff8111156129d2576129d1613997565b5b6129de8a828b01612925565b96505060406129ef8a828b01612953565b9550506060612a008a828b01612953565b945050608088013567ffffffffffffffff811115612a2157612a20613997565b5b612a2d8a828b01612925565b93505060a088013567ffffffffffffffff811115612a4e57612a4d613997565b5b612a5a8a828b01612925565b92505060c088013567ffffffffffffffff811115612a7b57612a7a613997565b5b612a878a828b01612925565b91505092959891949750929550565b600060208284031215612aac57612aab61399c565b5b6000612aba84828501612953565b91505092915050565b60008060408385031215612ada57612ad961399c565b5b6000612ae885828601612953565b9250506020612af9858286016128fb565b9150509250929050565b60008060008060808587031215612b1d57612b1c61399c565b5b6000612b2b87828801612953565b945050602085013567ffffffffffffffff811115612b4c57612b4b613997565b5b612b5887828801612925565b9350506040612b6987828801612953565b9250506060612b7a87828801612910565b91505092959194509250565b60008060408385031215612b9d57612b9c61399c565b5b6000612bab85828601612953565b9250506020612bbc85828601612953565b9150509250929050565b6000612bd28383612f3e565b905092915050565b6000612be683836131e0565b905092915050565b612bf78161373d565b82525050565b612c06816136e2565b82525050565b612c15816136d0565b82525050565b6000612c268261352b565b612c308185613566565b935083602082028501612c428561350b565b8060005b85811015612c7e5784840389528151612c5f8582612bc6565b9450612c6a8361354c565b925060208a01995050600181019050612c46565b50829750879550505050505092915050565b6000612c9b82613536565b612ca58185613577565b935083602082028501612cb78561351b565b8060005b85811015612cf35784840389528151612cd48582612bda565b9450612cdf83613559565b925060208a01995050600181019050612cbb565b50829750879550505050505092915050565b6000612d1082613536565b612d1a8185613588565b935083602082028501612d2c8561351b565b8060005b85811015612d685784840389528151612d498582612bda565b9450612d5483613559565b925060208a01995050600181019050612d30565b50829750879550505050505092915050565b612d83816136f4565b82525050565b612d92816136f4565b82525050565b612da18161374f565b82525050565b6000612db282613541565b612dbc8185613599565b9350612dcc818560208601613794565b612dd5816139a1565b840191505092915050565b6000612ded6014836135aa565b9150612df8826139b2565b602082019050919050565b6000612e106016836135aa565b9150612e1b826139db565b602082019050919050565b6000612e33601f836135aa565b9150612e3e82613a04565b602082019050919050565b6000612e566032836135aa565b9150612e6182613a2d565b604082019050919050565b6000612e79601c836135aa565b9150612e8482613a7c565b602082019050919050565b6000612e9c6021836135aa565b9150612ea782613aa5565b604082019050919050565b6000612ebf6021836135aa565b9150612eca82613af4565b604082019050919050565b6000612ee26020836135aa565b9150612eed82613b43565b602082019050919050565b6000612f056028836135aa565b9150612f1082613b6c565b604082019050919050565b6000612f28601f836135aa565b9150612f3382613bbb565b602082019050919050565b60006101c083016000830151612f576000860182613269565b506020830151612f6a6020860182612bfd565b5060408301518482036040860152612f828282612da7565b91505060608301518482036060860152612f9c8282612da7565b9150506080830151612fb16080860182613269565b5060a0830151612fc460a0860182613269565b5060c0830151612fd760c0860182613269565b5060e083015184820360e0860152612fef8282612da7565b91505061010083015184820361010086015261300b8282612da7565b9150506101208301518482036101208601526130278282612da7565b91505061014083015161303e610140860182612d98565b50610160830151613053610160860182613269565b5061018083015184820361018086015261306d8282612c90565b9150506101a08301516130846101a0860182613269565b508091505092915050565b60006101c0830160008301516130a86000860182613269565b5060208301516130bb6020860182612bfd565b50604083015184820360408601526130d38282612da7565b915050606083015184820360608601526130ed8282612da7565b91505060808301516131026080860182613269565b5060a083015161311560a0860182613269565b5060c083015161312860c0860182613269565b5060e083015184820360e08601526131408282612da7565b91505061010083015184820361010086015261315c8282612da7565b9150506101208301518482036101208601526131788282612da7565b91505061014083015161318f610140860182612d98565b506101608301516131a4610160860182613269565b506101808301518482036101808601526131be8282612c90565b9150506101a08301516131d56101a0860182613269565b508091505092915050565b600060c0830160008301516131f86000860182613269565b50602083015184820360208601526132108282612da7565b91505060408301516132256040860182613269565b5060608301516132386060860182612bfd565b50608083015161324b6080860182612d7a565b5060a083015161325e60a0860182613269565b508091505092915050565b61327281613733565b82525050565b61328181613733565b82525050565b600060208201905061329c6000830184612bee565b92915050565b60006060820190506132b76000830186612c0c565b6132c46020830185613278565b6132d16040830184613278565b949350505050565b600060208201905081810360008301526132f38184612c1b565b905092915050565b600060208201905081810360008301526133158184612d05565b905092915050565b60006020820190506133326000830184612d89565b92915050565b6000602082019050818103600083015261335181612de0565b9050919050565b6000602082019050818103600083015261337181612e03565b9050919050565b6000602082019050818103600083015261339181612e26565b9050919050565b600060208201905081810360008301526133b181612e49565b9050919050565b600060208201905081810360008301526133d181612e6c565b9050919050565b600060208201905081810360008301526133f181612e8f565b9050919050565b6000602082019050818103600083015261341181612eb2565b9050919050565b6000602082019050818103600083015261343181612ed5565b9050919050565b6000602082019050818103600083015261345181612ef8565b9050919050565b6000602082019050818103600083015261347181612f1b565b9050919050565b60006020820190508181036000830152613492818461308f565b905092915050565b60006020820190506134af6000830184613278565b92915050565b60006134bf6134d0565b90506134cb82826137f9565b919050565b6000604051905090565b600067ffffffffffffffff8211156134f5576134f461395e565b5b6134fe826139a1565b9050602081019050919050565b6000819050602082019050919050565b6000819050602082019050919050565b600081519050919050565b600081519050919050565b600081519050919050565b6000602082019050919050565b6000602082019050919050565b600082825260208201905092915050565b600082825260208201905092915050565b600082825260208201905092915050565b600082825260208201905092915050565b600082825260208201905092915050565b60006135c682613733565b91506135d183613733565b9250827fffffffffffffffffffffffffffffffffffffffffffffffffffffffffffffffff0382111561360657613605613873565b5b828201905092915050565b600061361c82613733565b915061362783613733565b925082613637576136366138a2565b5b828204905092915050565b600061364d82613733565b915061365883613733565b9250817fffffffffffffffffffffffffffffffffffffffffffffffffffffffffffffffff048311821515161561369157613690613873565b5b828202905092915050565b60006136a782613733565b91506136b283613733565b9250828210156136c5576136c4613873565b5b828203905092915050565b60006136db82613713565b9050919050565b60006136ed82613713565b9050919050565b60008115159050919050565b600081905061370e82613be4565b919050565b600073ffffffffffffffffffffffffffffffffffffffff82169050919050565b6000819050919050565b600061374882613761565b9050919050565b600061375a82613700565b9050919050565b600061376c82613773565b9050919050565b600061377e82613713565b9050919050565b82818337600083830152505050565b60005b838110156137b2578082015181840152602081019050613797565b838111156137c1576000848401525b50505050565b600060028204905060018216806137df57607f821691505b602082108114156137f3576137f2613900565b5b50919050565b613802826139a1565b810181811067ffffffffffffffff821117156138215761382061395e565b5b80604052505050565b600061383582613733565b91507fffffffffffffffffffffffffffffffffffffffffffffffffffffffffffffffff82141561386857613867613873565b5b600182019050919050565b7f4e487b7100000000000000000000000000000000000000000000000000000000600052601160045260246000fd5b7f4e487b7100000000000000000000000000000000000000000000000000000000600052601260045260246000fd5b7f4e487b7100000000000000000000000000000000000000000000000000000000600052602160045260246000fd5b7f4e487b7100000000000000000000000000000000000000000000000000000000600052602260045260246000fd5b7f4e487b7100000000000000000000000000000000000000000000000000000000600052603260045260246000fd5b7f4e487b7100000000000000000000000000000000000000000000000000000000600052604160045260246000fd5b600080fd5b600080fd5b600080fd5b600080fd5b6000601f19601f8301169050919050565b7f65787069726564206f722073756363657366756c000000000000000000000000600082015250565b7f796f75206861766520616c726561647920766f74656400000000000000000000600082015250565b7f7769746864726177616c206973206d6f7265207468616e2062616c616e636500600082015250565b7f70726f6a6563742065787069726564206f72207375636365737366756c20636160008201527f6e27742063726561746520726571756573740000000000000000000000000000602082015250565b7f636f6e646974696f6e206e6f742066756c6c66696c6c65642079657400000000600082015250565b7f796f75206d757374206265206120636f6e7472696275746f7220746f20766f7460008201527f6500000000000000000000000000000000000000000000000000000000000000602082015250565b7f70726f6a656374206e6f7420657870697265642c2063616e277420726566756e60008201527f6400000000000000000000000000000000000000000000000000000000000000602082015250565b7f50726f6a6563742063726561746f722063616e277420636f6e74726962757465600082015250565b7f796f752068617665206e6f7420636f6e747269627574656420746f207468697360008201527f2070726f6a656374000000000000000000000000000000000000000000000000602082015250565b7f6f6e6c79206d616e616765722063616e20637265617465205265717565737400600082015250565b60038110613bf557613bf46138d1565b5b50565b613c01816136d0565b8114613c0c57600080fd5b50565b613c18816136e2565b8114613c2357600080fd5b50565b613c2f81613733565b8114613c3a57600080fd5b5056fea26469706673582212205008f59b3f87ddd07056df3e0b980e6c9751873e2cfc2371c3ece127f3fb096764736f6c63430008060033",
  "linkReferences": {},
  "deployedLinkReferences": {}
}